:10000000BEEF00F00000000000EF00F00000000074
:0A0010000000000000000000F3D71C
:0C001C000E0E0D6E0D2EFED7000012001F
:100028000B6A0A6A096A00500402F4CF09F0F3CF98
:1000380008F001500502F4CF0BF0F3CF0AF000509E
:100048000502F3500926F4500A22E86A0B220150EF
:100058000402F3500926F4500A22E86A0B2208C069
:1000680000F009C001F00AC002F00BC003F0120052
:0A0078009494CA840C0EBD1212000D
:10008200CB50010F006E016A000E012223C004F062
:10009200000E056EC8DF060E026E00C004F001C03D
:1000A20005F0025005E005320432059EFF0FFAD733
:1000B200040E016E04C000F0015004E0003600900E
:1000C200FF0FFBD7300E0014036E04C000F005C012
:1000D20001F001320032019E01320032019E00C065
:0C00E200BEFF0F0EBD160350BD12120031
:1000EE00086A096A100E0C6E01340836093604507F
:1000FE00085E0550D8A0053C095ED8B007D0045064
:10010E0008260550D8B0053C0926D8900036013691
:06011E000C2EEAD71200CE
:100124000900F5CFE6FF0006FBE10106F9E1120044
:10013400C26A070EC012C08E23C000F000360090C1
:10014400003600900050C212C28066DFC282C2A292
:1001540001D0FDD7C4CF01F0006AC3500012000ED5
:060164000112C29012001E
:0A016A009484CA94F00EBD16120032
:08017400BE6ABD98BD9A12009D
:10017C003F0E156E060E166E5B0E176E4F0E186E3A
:10018C00660E196E6D0E1A6E7D0E1B6E070E1C6EB2
:10019C007F0E1D6E6F0E1E6E1F6A206A956A0F0E03
:1001AC00C16E9298929A949A828A020E236EBCDF48
:1001BC0000C01FF001C020F000C01FF001C020F0F3
:1001CC0020321F32209E060E0C6E300E0D6E0D2E40
:1001DC00FED70C2EFCD70000000E205C02E11E0E98
:1001EC001F5C0CE3CA80CA92630ECB6EBDDF050E9A
:1001FC001F02F3CF23F03FDF39DF01D0B0DF1FC088
:10020C0021F020C022F0060E0C6E300E0D6E0D2E5D
:10021C00FED70C2EFCD700000A0E046E000E056EE5
:10022C0021C000F022C001F05CDF08C000F009C062
:10023C0001F0150E0024E96E000E0120EA6EEECFDF
:10024C0083FF808A060E0C6E300E0D6E0D2EFED7BF
:10025C000C2EFCD70000809A0A0E046E000E056E60
:10026C0021C000F022C001F03CDF00C021F001C031
:10027C0022F00A0E046E000E056E33DF08C000F08B
:10028C0009C001F0150E0024E96E000E0120EA6E83
:10029C00EECF83FF8088060E0C6E300E0D6E0D2E89
:1002AC00FED70C2EFCD700008098060E0C6E300E7C
:1002BC000D6E0D2EFED70C2EFCD7000076D7FFD777
:020000040030CA
:0D000100021F1EFF8381FF0FC00FE00F40A4
:00000001FF
