:04000000DCEF02F03F
:1000080000C016F001C015F088DA010E416E96D8CE
:100018000C0E416E93D8F2A479D0DB0ED76E610E28
:10002800D66E172A1750100A23E10B0E0B6E260EF8
:100038000C6E5D0E0D6E0D2EFED70C2EFCD70B2E02
:10004800FAD70000000044DA020E176E0F0E175C94
:100058000DE217C037F0D7D900C040F0020E3E6E4F
:100068001750010F3F6EA8D8172AF0D7176A4DD03E
:10007800020E376E92D900C02DF001C02EF000C0DC
:100088002DF001C02EF02E322D322E9E010E396E2B
:10009800010E3A6E210E3B6E000E3C6ECDD82DC07F
:1000A8001FF02EC020F017C037F00A0E046E000EA5
:1000B800056E2DC000F02EC001F0D5D908C000F0A3
:1000C80009C001F00050300F386EE8D90A0E046EEE
:1000D800000E056E1FC000F020C001F0C4D900C09A
:1000E8001FF001C020F0172A1750010F376E0A0EB3
:1000F800046E000E056EB7D908C000F009C001F003
:100108000050300F386ECAD9172AF29416C000F082
:0601180015C001F011000A
:0A011E00210E0D6E0D2EFED712000B
:100128000F0E0C6E470E0D6E0D2EFED70C2EFCD743
:06013800000000001200AF
:06013E00000000001200A9
:1001440041BE02D0839E01D0838E41BC02D0839CE9
:1001540001D0838C41BA02D0839A01D0838A41B8FA
:1001640002D0839801D0838831B002D0848401D036
:1001740084948482E2DF849241B602D0839E01D0CB
:10018400838E41B402D0839C01D0838C41B202D0CF
:10019400839A01D0838A41B002D0839801D08388A6
:1001A40031B002D0848401D084948482C6DF8492E6
:0C01B40031A002D0B7DF01D0B0DF120094
:1001C0000FD0800E3E6E19D0C00E3E6E16D0940E2B
:1001D0003E6E13D0D40E3E6E10D0800E3E6E0DD00B
:1001E0003E50010AEEE03E50020AEEE03E50030AA5
:1001F000EEE03E50040AEEE0F0D73F04006E3E50C1
:10020000002600C03EF0318000C041F09BDF3190FD
:0A02100040C041F097DF318012007A
:0C021A0031903EC041F091DF31801200B5
:10022600C7B409D01F0EC514016E0150000A03E1C0
:0A023600010E006E01D0006A1200F4
:100240000FD0800E396E19D0C00E396E16D0940EB4
:10025000396E13D0D40E396E10D0800E396E0DD099
:100260003950010AEEE03950020AEEE03950030A33
:10027000EEE03950040AEEE0F0D73A04006E39504F
:10028000002600C039F000C041F05CDF31903D6ACB
:100290003D503B24E96E000E3C20EA6EEE520BE02E
:1002A0003D503B24E96E000E3C20EA6EEECF3EF05E
:0A02B000B4DF3D2AEDD731801200C3
:0C02BA000E0E0D6E0D2EFED7000012007F
:1002C6003BC040F04032409E4032409E4032409E0D
:1002D6004032409E300E402639C03EF03AC03FF0D4
:1002E6006CDF0F0E3B143E6E300E3E2693DF12007F
:1002F6009E96C5869EB601D0FDD7C9CF01F0335074
:10030600000A02E1C58A01D0C59A9E96C5889EB6A6
:0A03160001D0FDD701C000F0120075
:10032000336A346A3450120802E133508E0807E30E
:100330007ADF005201E003D0334A342AF3D7120E99
:10034000345C02E18F0E335C03E37B0E006E05D05C
:0C035000C580C5A001D0FDD7006A1200D6
:10035C00949894968B988B9694889486C79EC79CF9
:06036C00380EC66E1200FF
:100372009E9633C0C9FFC7A401D0FDD79EB601D057
:10038200FDD7C5BC02D0006A03D0C584020E006E40
:02039200120057
:0A039400C582C5A201D0FDD71200FA
:04039E00C584120000
:1003A200C26A070EC012C08E37C000F0003600903D
:1003B200003600900050C212C2807EDFC282C2A20A
:1003C20001D0FDD7C4CF01F0006AC3500012000E65
:0603D2000112C2901200AE
:1003D800A3DFD00E336EC9DF336AC7DFD7DFD10E94
:1003E800336EC3DF010E336E82DF00C032F0010EC0
:1003F800336E7DDF00C02FF0010E336E78DF00C052
:0604080030F0C9DF120014
:10040E00A69C37C0A9FFA69EA680A8CF00F012001A
:10041E000900F5CFE6FF0006FBE10106F9E1120047
:10042E00140EC86E94DF75DFD00E336E9BDF336A09
:10043E0099DF040E336E96DF120E336E93DF090EC4
:10044E00336E90DF030E336E8DDF220E336E8ADF36
:10045E00060E336E87DF170E336E84DF99DF1200C0
:10046E00086A096A100E0C6E0134083609360450FB
:10047E00085E0550D8A0053C095ED8B007D00450E0
:10048E0008260550D8B0053C0926D890003601360E
:06049E000C2EEAD712004B
:1004A400A6A202D00000FCD7A69C37C0A9FF38C082
:1004B400A8FFA69EA684F2CF00F0F29E550EA76E6A
:1004C400AA0EA76EA68200BE02D0F29E01D0F28EC2
:0404D400A6941200D8
:1004D800010E396E010E3A6E180E3B6E000E3C6E20
:1004E800ABDE010E396E070E3A6E30C03BF0E7DE28
:1004F8003A0E3E6E8EDE010E396E0A0E3A6E2FC02F
:100508003BF0DDDE3A0E3E6E84DE010E396E0D0ED6
:0A0518003A6E32C03BF0D3DE120051
:10052200969296949598959A959C959E8492849489
:10053200839E839C839A8398F6DDF5DDF4DD838ABE
:1005420083888482FBDD8492EEDD8482F7DD8492EF
:10055200EADD8482F3DD8492E6DD83988482EEDD37
:100562008492E1DD8482EADD8492839A838E84829E
:10057200E5DD8492D8DD839E83888482DFDD8492E8
:1005820083988482DBDD8492CEDD8482D7DD8492FF
:1005920083888482D3DD8492C6DD83988482CEDD13
:1005A2008492838E838C838A83888482C7DD84923B
:0605B200BADD31801200E9
:1005B80003EC03F0949A828A0F0EC16ED59AD596F1
:1005C800D584D582D590D59CDB0ED76E610ED66EBC
:1005D800F28AF294D58EF28EF28C9380938223DF86
:0605E800F7DEFED7FFD78D
:1006060010EE17F0180E006E010E016EEE0EF66E6D
:0E061600050EF76E000EF86E0FEC02F01200EB
:0105EE00000C
:0705EF0028486F726129002A
:0205F600000003
:0C05F80052656769737472616E646F0075
:020604000000F4
:020000040030CA
:0D000100021F1EFF8381FF0FC00FE00F40A4
:00000001FF
